{
  "_format": "hh-sol-artifact-1",
  "contractName": "Tickets",
  "sourceName": "contracts/Tickets.sol",
  "abi": [
    {
      "inputs": [],
      "stateMutability": "payable",
      "type": "constructor"
    },
    {
      "anonymous": false,
      "inputs": [
        {
          "indexed": true,
          "internalType": "address",
          "name": "owner",
          "type": "address"
        },
        {
          "indexed": true,
          "internalType": "address",
          "name": "approved",
          "type": "address"
        },
        {
          "indexed": true,
          "internalType": "uint256",
          "name": "tokenId",
          "type": "uint256"
        }
      ],
      "name": "Approval",
      "type": "event"
    },
    {
      "anonymous": false,
      "inputs": [
        {
          "indexed": true,
          "internalType": "address",
          "name": "owner",
          "type": "address"
        },
        {
          "indexed": true,
          "internalType": "address",
          "name": "operator",
          "type": "address"
        },
        {
          "indexed": false,
          "internalType": "bool",
          "name": "approved",
          "type": "bool"
        }
      ],
      "name": "ApprovalForAll",
      "type": "event"
    },
    {
      "anonymous": false,
      "inputs": [
        {
          "indexed": true,
          "internalType": "address",
          "name": "from",
          "type": "address"
        },
        {
          "indexed": true,
          "internalType": "address",
          "name": "to",
          "type": "address"
        },
        {
          "indexed": true,
          "internalType": "uint256",
          "name": "tokenId",
          "type": "uint256"
        }
      ],
      "name": "Transfer",
      "type": "event"
    },
    {
      "inputs": [
        {
          "internalType": "address",
          "name": "to",
          "type": "address"
        },
        {
          "internalType": "uint256",
          "name": "tokenId",
          "type": "uint256"
        }
      ],
      "name": "approve",
      "outputs": [],
      "stateMutability": "nonpayable",
      "type": "function"
    },
    {
      "inputs": [
        {
          "internalType": "address",
          "name": "owner",
          "type": "address"
        }
      ],
      "name": "balanceOf",
      "outputs": [
        {
          "internalType": "uint256",
          "name": "",
          "type": "uint256"
        }
      ],
      "stateMutability": "view",
      "type": "function"
    },
    {
      "inputs": [
        {
          "internalType": "uint256",
          "name": "_num",
          "type": "uint256"
        },
        {
          "internalType": "address",
          "name": "_caller",
          "type": "address"
        }
      ],
      "name": "fetchQRCode",
      "outputs": [
        {
          "internalType": "bytes32",
          "name": "",
          "type": "bytes32"
        }
      ],
      "stateMutability": "view",
      "type": "function"
    },
    {
      "inputs": [
        {
          "internalType": "uint256",
          "name": "tokenId",
          "type": "uint256"
        }
      ],
      "name": "getApproved",
      "outputs": [
        {
          "internalType": "address",
          "name": "",
          "type": "address"
        }
      ],
      "stateMutability": "view",
      "type": "function"
    },
    {
      "inputs": [
        {
          "internalType": "address",
          "name": "owner",
          "type": "address"
        },
        {
          "internalType": "address",
          "name": "operator",
          "type": "address"
        }
      ],
      "name": "isApprovedForAll",
      "outputs": [
        {
          "internalType": "bool",
          "name": "",
          "type": "bool"
        }
      ],
      "stateMutability": "view",
      "type": "function"
    },
    {
      "inputs": [
        {
          "internalType": "uint256",
          "name": "quantity_",
          "type": "uint256"
        }
      ],
      "name": "mint",
      "outputs": [
        {
          "internalType": "bytes32",
          "name": "",
          "type": "bytes32"
        }
      ],
      "stateMutability": "nonpayable",
      "type": "function"
    },
    {
      "inputs": [],
      "name": "name",
      "outputs": [
        {
          "internalType": "string",
          "name": "",
          "type": "string"
        }
      ],
      "stateMutability": "view",
      "type": "function"
    },
    {
      "inputs": [
        {
          "internalType": "uint256",
          "name": "tokenId",
          "type": "uint256"
        }
      ],
      "name": "ownerOf",
      "outputs": [
        {
          "internalType": "address",
          "name": "",
          "type": "address"
        }
      ],
      "stateMutability": "view",
      "type": "function"
    },
    {
      "inputs": [],
      "name": "ownsATicketCheck",
      "outputs": [
        {
          "internalType": "bool",
          "name": "",
          "type": "bool"
        }
      ],
      "stateMutability": "view",
      "type": "function"
    },
    {
      "inputs": [
        {
          "internalType": "address",
          "name": "from",
          "type": "address"
        },
        {
          "internalType": "address",
          "name": "to",
          "type": "address"
        },
        {
          "internalType": "uint256",
          "name": "tokenId",
          "type": "uint256"
        }
      ],
      "name": "safeTransferFrom",
      "outputs": [],
      "stateMutability": "nonpayable",
      "type": "function"
    },
    {
      "inputs": [
        {
          "internalType": "address",
          "name": "from",
          "type": "address"
        },
        {
          "internalType": "address",
          "name": "to",
          "type": "address"
        },
        {
          "internalType": "uint256",
          "name": "tokenId",
          "type": "uint256"
        },
        {
          "internalType": "bytes",
          "name": "_data",
          "type": "bytes"
        }
      ],
      "name": "safeTransferFrom",
      "outputs": [],
      "stateMutability": "nonpayable",
      "type": "function"
    },
    {
      "inputs": [
        {
          "internalType": "address",
          "name": "operator",
          "type": "address"
        },
        {
          "internalType": "bool",
          "name": "approved",
          "type": "bool"
        }
      ],
      "name": "setApprovalForAll",
      "outputs": [],
      "stateMutability": "nonpayable",
      "type": "function"
    },
    {
      "inputs": [
        {
          "internalType": "bytes4",
          "name": "interfaceId",
          "type": "bytes4"
        }
      ],
      "name": "supportsInterface",
      "outputs": [
        {
          "internalType": "bool",
          "name": "",
          "type": "bool"
        }
      ],
      "stateMutability": "view",
      "type": "function"
    },
    {
      "inputs": [],
      "name": "symbol",
      "outputs": [
        {
          "internalType": "string",
          "name": "",
          "type": "string"
        }
      ],
      "stateMutability": "view",
      "type": "function"
    },
    {
      "inputs": [
        {
          "internalType": "uint256",
          "name": "tokenId",
          "type": "uint256"
        }
      ],
      "name": "tokenURI",
      "outputs": [
        {
          "internalType": "string",
          "name": "",
          "type": "string"
        }
      ],
      "stateMutability": "view",
      "type": "function"
    },
    {
      "inputs": [],
      "name": "totalMinted",
      "outputs": [
        {
          "internalType": "uint256",
          "name": "",
          "type": "uint256"
        }
      ],
      "stateMutability": "view",
      "type": "function"
    },
    {
      "inputs": [
        {
          "internalType": "address",
          "name": "from",
          "type": "address"
        },
        {
          "internalType": "address",
          "name": "to",
          "type": "address"
        },
        {
          "internalType": "uint256",
          "name": "tokenId",
          "type": "uint256"
        }
      ],
      "name": "transferFrom",
      "outputs": [],
      "stateMutability": "nonpayable",
      "type": "function"
    }
  ],
  "bytecode": "0x60806040526040518060400160405280600e81526020017f466573746976616c5469636b65740000000000000000000000000000000000008152506040518060400160405280600581526020017f4654434b54000000000000000000000000000000000000000000000000000000815250816000908051906020019062000088929190620000b2565b508060019080519060200190620000a1929190620000b2565b5050506000600681905550620001c7565b828054620000c09062000162565b90600052602060002090601f016020900481019282620000e4576000855562000130565b82601f10620000ff57805160ff191683800117855562000130565b8280016001018555821562000130579182015b828111156200012f57825182559160200191906001019062000112565b5b5090506200013f919062000143565b5090565b5b808211156200015e57600081600090555060010162000144565b5090565b600060028204905060018216806200017b57607f821691505b6020821081141562000192576200019162000198565b5b50919050565b7f4e487b7100000000000000000000000000000000000000000000000000000000600052602260045260246000fd5b612c0680620001d76000396000f3fe608060405234801561001057600080fd5b506004361061010b5760003560e01c806370a08231116100a2578063a22cb46511610071578063a22cb465146102de578063a2309ff8146102fa578063b88d4fde14610318578063c87b56dd14610334578063e985e9c5146103645761010b565b806370a082311461024257806370e068671461027257806395d89b4114610290578063a0712d68146102ae5761010b565b8063159e8071116100de578063159e8071146101aa57806323b872dd146101da57806342842e0e146101f65780636352211e146102125761010b565b806301ffc9a71461011057806306fdde0314610140578063081812fc1461015e578063095ea7b31461018e575b600080fd5b61012a60048036038101906101259190611c05565b610394565b60405161013791906120b0565b60405180910390f35b610148610476565b60405161015591906120e6565b60405180910390f35b61017860048036038101906101739190611c57565b610508565b6040516101859190612049565b60405180910390f35b6101a860048036038101906101a39190611bc9565b61058d565b005b6101c460048036038101906101bf9190611c80565b6106a5565b6040516101d191906120cb565b60405180910390f35b6101f460048036038101906101ef9190611ac3565b610746565b005b610210600480360381019061020b9190611ac3565b6107a6565b005b61022c60048036038101906102279190611c57565b6107c6565b6040516102399190612049565b60405180910390f35b61025c60048036038101906102579190611a5e565b610878565b6040516102699190612308565b60405180910390f35b61027a610930565b60405161028791906120b0565b60405180910390f35b610298610984565b6040516102a591906120e6565b60405180910390f35b6102c860048036038101906102c39190611c57565b610a16565b6040516102d591906120cb565b60405180910390f35b6102f860048036038101906102f39190611b8d565b610b54565b005b610302610b6a565b60405161030f9190612308565b60405180910390f35b610332600480360381019061032d9190611b12565b610b70565b005b61034e60048036038101906103499190611c57565b610bd2565b60405161035b91906120e6565b60405180910390f35b61037e60048036038101906103799190611a87565b610c79565b60405161038b91906120b0565b60405180910390f35b60007f80ac58cd000000000000000000000000000000000000000000000000000000007bffffffffffffffffffffffffffffffffffffffffffffffffffffffff1916827bffffffffffffffffffffffffffffffffffffffffffffffffffffffff1916148061045f57507f5b5e139f000000000000000000000000000000000000000000000000000000007bffffffffffffffffffffffffffffffffffffffffffffffffffffffff1916827bffffffffffffffffffffffffffffffffffffffffffffffffffffffff1916145b8061046f575061046e82610d0d565b5b9050919050565b60606000805461048590612537565b80601f01602080910402602001604051908101604052809291908181526020018280546104b190612537565b80156104fe5780601f106104d3576101008083540402835291602001916104fe565b820191906000526020600020905b8154815290600101906020018083116104e157829003601f168201915b5050505050905090565b600061051382610d77565b610552576040517f08c379a000000000000000000000000000000000000000000000000000000000815260040161054990612288565b60405180910390fd5b6004600083815260200190815260200160002060009054906101000a900473ffffffffffffffffffffffffffffffffffffffff169050919050565b6000610598826107c6565b90508073ffffffffffffffffffffffffffffffffffffffff168373ffffffffffffffffffffffffffffffffffffffff161415610609576040517f08c379a0000000000000000000000000000000000000000000000000000000008152600401610600906122c8565b60405180910390fd5b8073ffffffffffffffffffffffffffffffffffffffff16610628610de3565b73ffffffffffffffffffffffffffffffffffffffff161480610657575061065681610651610de3565b610c79565b5b610696576040517f08c379a000000000000000000000000000000000000000000000000000000000815260040161068d90612208565b60405180910390fd5b6106a08383610deb565b505050565b60003373ffffffffffffffffffffffffffffffffffffffff168273ffffffffffffffffffffffffffffffffffffffff1614610715576040517f08c379a000000000000000000000000000000000000000000000000000000000815260040161070c90612108565b60405180910390fd5b828260405160200161072892919061201d565b60405160208183030381529060405280519060200120905092915050565b610757610751610de3565b82610ea4565b610796576040517f08c379a000000000000000000000000000000000000000000000000000000000815260040161078d906122e8565b60405180910390fd5b6107a1838383610f82565b505050565b6107c183838360405180602001604052806000815250610b70565b505050565b6000806002600084815260200190815260200160002060009054906101000a900473ffffffffffffffffffffffffffffffffffffffff169050600073ffffffffffffffffffffffffffffffffffffffff168173ffffffffffffffffffffffffffffffffffffffff16141561086f576040517f08c379a000000000000000000000000000000000000000000000000000000000815260040161086690612248565b60405180910390fd5b80915050919050565b60008073ffffffffffffffffffffffffffffffffffffffff168273ffffffffffffffffffffffffffffffffffffffff1614156108e9576040517f08c379a00000000000000000000000000000000000000000000000000000000081526004016108e090612228565b60405180910390fd5b600360008373ffffffffffffffffffffffffffffffffffffffff1673ffffffffffffffffffffffffffffffffffffffff168152602001908152602001600020549050919050565b6000600760003373ffffffffffffffffffffffffffffffffffffffff1673ffffffffffffffffffffffffffffffffffffffff16815260200190815260200160002060009054906101000a900460ff16905090565b60606001805461099390612537565b80601f01602080910402602001604051908101604052809291908181526020018280546109bf90612537565b8015610a0c5780601f106109e157610100808354040283529160200191610a0c565b820191906000526020600020905b8154815290600101906020018083116109ef57829003601f168201915b5050505050905090565b6000801515600760003373ffffffffffffffffffffffffffffffffffffffff1673ffffffffffffffffffffffffffffffffffffffff16815260200190815260200160002060009054906101000a900460ff16151514610aaa576040517f08c379a0000000000000000000000000000000000000000000000000000000008152600401610aa190612148565b60405180910390fd5b6001600760003373ffffffffffffffffffffffffffffffffffffffff1673ffffffffffffffffffffffffffffffffffffffff16815260200190815260200160002060006101000a81548160ff02191690831515021790555060066000815480929190610b159061259a565b9190505550610b2433836111e9565b8133604051602001610b3792919061201d565b604051602081830303815290604052805190602001209050919050565b610b66610b5f610de3565b8383611207565b5050565b60065481565b610b81610b7b610de3565b83610ea4565b610bc0576040517f08c379a0000000000000000000000000000000000000000000000000000000008152600401610bb7906122e8565b60405180910390fd5b610bcc84848484611374565b50505050565b6060610bdd82610d77565b610c1c576040517f08c379a0000000000000000000000000000000000000000000000000000000008152600401610c13906122a8565b60405180910390fd5b6000610c266113d0565b90506000815111610c465760405180602001604052806000815250610c71565b80610c50846113e7565b604051602001610c61929190611ff9565b6040516020818303038152906040525b915050919050565b6000600560008473ffffffffffffffffffffffffffffffffffffffff1673ffffffffffffffffffffffffffffffffffffffff16815260200190815260200160002060008373ffffffffffffffffffffffffffffffffffffffff1673ffffffffffffffffffffffffffffffffffffffff16815260200190815260200160002060009054906101000a900460ff16905092915050565b60007f01ffc9a7000000000000000000000000000000000000000000000000000000007bffffffffffffffffffffffffffffffffffffffffffffffffffffffff1916827bffffffffffffffffffffffffffffffffffffffffffffffffffffffff1916149050919050565b60008073ffffffffffffffffffffffffffffffffffffffff166002600084815260200190815260200160002060009054906101000a900473ffffffffffffffffffffffffffffffffffffffff1673ffffffffffffffffffffffffffffffffffffffff1614159050919050565b600033905090565b816004600083815260200190815260200160002060006101000a81548173ffffffffffffffffffffffffffffffffffffffff021916908373ffffffffffffffffffffffffffffffffffffffff160217905550808273ffffffffffffffffffffffffffffffffffffffff16610e5e836107c6565b73ffffffffffffffffffffffffffffffffffffffff167f8c5be1e5ebec7d5bd14f71427d1e84f3dd0314c0f7b2291e5b200ac8c7c3b92560405160405180910390a45050565b6000610eaf82610d77565b610eee576040517f08c379a0000000000000000000000000000000000000000000000000000000008152600401610ee5906121e8565b60405180910390fd5b6000610ef9836107c6565b90508073ffffffffffffffffffffffffffffffffffffffff168473ffffffffffffffffffffffffffffffffffffffff161480610f3b5750610f3a8185610c79565b5b80610f7957508373ffffffffffffffffffffffffffffffffffffffff16610f6184610508565b73ffffffffffffffffffffffffffffffffffffffff16145b91505092915050565b8273ffffffffffffffffffffffffffffffffffffffff16610fa2826107c6565b73ffffffffffffffffffffffffffffffffffffffff1614610ff8576040517f08c379a0000000000000000000000000000000000000000000000000000000008152600401610fef90612168565b60405180910390fd5b600073ffffffffffffffffffffffffffffffffffffffff168273ffffffffffffffffffffffffffffffffffffffff161415611068576040517f08c379a000000000000000000000000000000000000000000000000000000000815260040161105f906121a8565b60405180910390fd5b611073838383611594565b61107e600082610deb565b6001600360008573ffffffffffffffffffffffffffffffffffffffff1673ffffffffffffffffffffffffffffffffffffffff16815260200190815260200160002060008282546110ce9190612443565b925050819055506001600360008473ffffffffffffffffffffffffffffffffffffffff1673ffffffffffffffffffffffffffffffffffffffff168152602001908152602001600020600082825461112591906123bc565b92505081905550816002600083815260200190815260200160002060006101000a81548173ffffffffffffffffffffffffffffffffffffffff021916908373ffffffffffffffffffffffffffffffffffffffff160217905550808273ffffffffffffffffffffffffffffffffffffffff168473ffffffffffffffffffffffffffffffffffffffff167fddf252ad1be2c89b69c2b068fc378daa952ba7f163c4a11628f55a4df523b3ef60405160405180910390a46111e4838383611599565b505050565b61120382826040518060200160405280600081525061159e565b5050565b8173ffffffffffffffffffffffffffffffffffffffff168373ffffffffffffffffffffffffffffffffffffffff161415611276576040517f08c379a000000000000000000000000000000000000000000000000000000000815260040161126d906121c8565b60405180910390fd5b80600560008573ffffffffffffffffffffffffffffffffffffffff1673ffffffffffffffffffffffffffffffffffffffff16815260200190815260200160002060008473ffffffffffffffffffffffffffffffffffffffff1673ffffffffffffffffffffffffffffffffffffffff16815260200190815260200160002060006101000a81548160ff0219169083151502179055508173ffffffffffffffffffffffffffffffffffffffff168373ffffffffffffffffffffffffffffffffffffffff167f17307eab39ab6107e8899845ad3d59bd9653f200f220920489ca2b5937696c318360405161136791906120b0565b60405180910390a3505050565b61137f848484610f82565b61138b848484846115f9565b6113ca576040517f08c379a00000000000000000000000000000000000000000000000000000000081526004016113c190612128565b60405180910390fd5b50505050565b606060405180602001604052806000815250905090565b6060600082141561142f576040518060400160405280600181526020017f3000000000000000000000000000000000000000000000000000000000000000815250905061158f565b600082905060005b6000821461146157808061144a9061259a565b915050600a8261145a9190612412565b9150611437565b60008167ffffffffffffffff8111156114a3577f4e487b7100000000000000000000000000000000000000000000000000000000600052604160045260246000fd5b6040519080825280601f01601f1916602001820160405280156114d55781602001600182028036833780820191505090505b5090505b60008514611588576001826114ee9190612443565b9150600a856114fd9190612611565b603061150991906123bc565b60f81b818381518110611545577f4e487b7100000000000000000000000000000000000000000000000000000000600052603260045260246000fd5b60200101907effffffffffffffffffffffffffffffffffffffffffffffffffffffffffffff1916908160001a905350600a856115819190612412565b94506114d9565b8093505050505b919050565b505050565b505050565b6115a88383611790565b6115b560008484846115f9565b6115f4576040517f08c379a00000000000000000000000000000000000000000000000000000000081526004016115eb90612128565b60405180910390fd5b505050565b600061161a8473ffffffffffffffffffffffffffffffffffffffff1661196a565b15611783578373ffffffffffffffffffffffffffffffffffffffff1663150b7a02611643610de3565b8786866040518563ffffffff1660e01b81526004016116659493929190612064565b602060405180830381600087803b15801561167f57600080fd5b505af19250505080156116b057506040513d601f19601f820116820180604052508101906116ad9190611c2e565b60015b611733573d80600081146116e0576040519150601f19603f3d011682016040523d82523d6000602084013e6116e5565b606091505b5060008151141561172b576040517f08c379a000000000000000000000000000000000000000000000000000000000815260040161172290612128565b60405180910390fd5b805181602001fd5b63150b7a0260e01b7bffffffffffffffffffffffffffffffffffffffffffffffffffffffff1916817bffffffffffffffffffffffffffffffffffffffffffffffffffffffff191614915050611788565b600190505b949350505050565b600073ffffffffffffffffffffffffffffffffffffffff168273ffffffffffffffffffffffffffffffffffffffff161415611800576040517f08c379a00000000000000000000000000000000000000000000000000000000081526004016117f790612268565b60405180910390fd5b61180981610d77565b15611849576040517f08c379a000000000000000000000000000000000000000000000000000000000815260040161184090612188565b60405180910390fd5b61185560008383611594565b6001600360008473ffffffffffffffffffffffffffffffffffffffff1673ffffffffffffffffffffffffffffffffffffffff16815260200190815260200160002060008282546118a591906123bc565b92505081905550816002600083815260200190815260200160002060006101000a81548173ffffffffffffffffffffffffffffffffffffffff021916908373ffffffffffffffffffffffffffffffffffffffff160217905550808273ffffffffffffffffffffffffffffffffffffffff16600073ffffffffffffffffffffffffffffffffffffffff167fddf252ad1be2c89b69c2b068fc378daa952ba7f163c4a11628f55a4df523b3ef60405160405180910390a461196660008383611599565b5050565b6000808273ffffffffffffffffffffffffffffffffffffffff163b119050919050565b60006119a061199b84612348565b612323565b9050828152602081018484840111156119b857600080fd5b6119c38482856124f5565b509392505050565b6000813590506119da81612b74565b92915050565b6000813590506119ef81612b8b565b92915050565b600081359050611a0481612ba2565b92915050565b600081519050611a1981612ba2565b92915050565b600082601f830112611a3057600080fd5b8135611a4084826020860161198d565b91505092915050565b600081359050611a5881612bb9565b92915050565b600060208284031215611a7057600080fd5b6000611a7e848285016119cb565b91505092915050565b60008060408385031215611a9a57600080fd5b6000611aa8858286016119cb565b9250506020611ab9858286016119cb565b9150509250929050565b600080600060608486031215611ad857600080fd5b6000611ae6868287016119cb565b9350506020611af7868287016119cb565b9250506040611b0886828701611a49565b9150509250925092565b60008060008060808587031215611b2857600080fd5b6000611b36878288016119cb565b9450506020611b47878288016119cb565b9350506040611b5887828801611a49565b925050606085013567ffffffffffffffff811115611b7557600080fd5b611b8187828801611a1f565b91505092959194509250565b60008060408385031215611ba057600080fd5b6000611bae858286016119cb565b9250506020611bbf858286016119e0565b9150509250929050565b60008060408385031215611bdc57600080fd5b6000611bea858286016119cb565b9250506020611bfb85828601611a49565b9150509250929050565b600060208284031215611c1757600080fd5b6000611c25848285016119f5565b91505092915050565b600060208284031215611c4057600080fd5b6000611c4e84828501611a0a565b91505092915050565b600060208284031215611c6957600080fd5b6000611c7784828501611a49565b91505092915050565b60008060408385031215611c9357600080fd5b6000611ca185828601611a49565b9250506020611cb2858286016119cb565b9150509250929050565b611cc581612477565b82525050565b611cdc611cd782612477565b6125e3565b82525050565b611ceb81612489565b82525050565b611cfa81612495565b82525050565b6000611d0b82612379565b611d15818561238f565b9350611d25818560208601612504565b611d2e816126fe565b840191505092915050565b6000611d4482612384565b611d4e81856123a0565b9350611d5e818560208601612504565b611d67816126fe565b840191505092915050565b6000611d7d82612384565b611d8781856123b1565b9350611d97818560208601612504565b80840191505092915050565b6000611db0600d836123a0565b9150611dbb8261271c565b602082019050919050565b6000611dd36032836123a0565b9150611dde82612745565b604082019050919050565b6000611df66022836123a0565b9150611e0182612794565b604082019050919050565b6000611e196025836123a0565b9150611e24826127e3565b604082019050919050565b6000611e3c601c836123a0565b9150611e4782612832565b602082019050919050565b6000611e5f6024836123a0565b9150611e6a8261285b565b604082019050919050565b6000611e826019836123a0565b9150611e8d826128aa565b602082019050919050565b6000611ea5602c836123a0565b9150611eb0826128d3565b604082019050919050565b6000611ec86038836123a0565b9150611ed382612922565b604082019050919050565b6000611eeb602a836123a0565b9150611ef682612971565b604082019050919050565b6000611f0e6029836123a0565b9150611f19826129c0565b604082019050919050565b6000611f316020836123a0565b9150611f3c82612a0f565b602082019050919050565b6000611f54602c836123a0565b9150611f5f82612a38565b604082019050919050565b6000611f77602f836123a0565b9150611f8282612a87565b604082019050919050565b6000611f9a6021836123a0565b9150611fa582612ad6565b604082019050919050565b6000611fbd6031836123a0565b9150611fc882612b25565b604082019050919050565b611fdc816124eb565b82525050565b611ff3611fee826124eb565b612607565b82525050565b60006120058285611d72565b91506120118284611d72565b91508190509392505050565b60006120298285611fe2565b6020820191506120398284611ccb565b6014820191508190509392505050565b600060208201905061205e6000830184611cbc565b92915050565b60006080820190506120796000830187611cbc565b6120866020830186611cbc565b6120936040830185611fd3565b81810360608301526120a58184611d00565b905095945050505050565b60006020820190506120c56000830184611ce2565b92915050565b60006020820190506120e06000830184611cf1565b92915050565b600060208201905081810360008301526121008184611d39565b905092915050565b6000602082019050818103600083015261212181611da3565b9050919050565b6000602082019050818103600083015261214181611dc6565b9050919050565b6000602082019050818103600083015261216181611de9565b9050919050565b6000602082019050818103600083015261218181611e0c565b9050919050565b600060208201905081810360008301526121a181611e2f565b9050919050565b600060208201905081810360008301526121c181611e52565b9050919050565b600060208201905081810360008301526121e181611e75565b9050919050565b6000602082019050818103600083015261220181611e98565b9050919050565b6000602082019050818103600083015261222181611ebb565b9050919050565b6000602082019050818103600083015261224181611ede565b9050919050565b6000602082019050818103600083015261226181611f01565b9050919050565b6000602082019050818103600083015261228181611f24565b9050919050565b600060208201905081810360008301526122a181611f47565b9050919050565b600060208201905081810360008301526122c181611f6a565b9050919050565b600060208201905081810360008301526122e181611f8d565b9050919050565b6000602082019050818103600083015261230181611fb0565b9050919050565b600060208201905061231d6000830184611fd3565b92915050565b600061232d61233e565b90506123398282612569565b919050565b6000604051905090565b600067ffffffffffffffff821115612363576123626126cf565b5b61236c826126fe565b9050602081019050919050565b600081519050919050565b600081519050919050565b600082825260208201905092915050565b600082825260208201905092915050565b600081905092915050565b60006123c7826124eb565b91506123d2836124eb565b9250827fffffffffffffffffffffffffffffffffffffffffffffffffffffffffffffffff0382111561240757612406612642565b5b828201905092915050565b600061241d826124eb565b9150612428836124eb565b92508261243857612437612671565b5b828204905092915050565b600061244e826124eb565b9150612459836124eb565b92508282101561246c5761246b612642565b5b828203905092915050565b6000612482826124cb565b9050919050565b60008115159050919050565b6000819050919050565b60007fffffffff0000000000000000000000000000000000000000000000000000000082169050919050565b600073ffffffffffffffffffffffffffffffffffffffff82169050919050565b6000819050919050565b82818337600083830152505050565b60005b83811015612522578082015181840152602081019050612507565b83811115612531576000848401525b50505050565b6000600282049050600182168061254f57607f821691505b60208210811415612563576125626126a0565b5b50919050565b612572826126fe565b810181811067ffffffffffffffff82111715612591576125906126cf565b5b80604052505050565b60006125a5826124eb565b91507fffffffffffffffffffffffffffffffffffffffffffffffffffffffffffffffff8214156125d8576125d7612642565b5b600182019050919050565b60006125ee826125f5565b9050919050565b60006126008261270f565b9050919050565b6000819050919050565b600061261c826124eb565b9150612627836124eb565b92508261263757612636612671565b5b828206905092915050565b7f4e487b7100000000000000000000000000000000000000000000000000000000600052601160045260246000fd5b7f4e487b7100000000000000000000000000000000000000000000000000000000600052601260045260246000fd5b7f4e487b7100000000000000000000000000000000000000000000000000000000600052602260045260246000fd5b7f4e487b7100000000000000000000000000000000000000000000000000000000600052604160045260246000fd5b6000601f19601f8301169050919050565b60008160601b9050919050565b7f57726f6e67206164647265737300000000000000000000000000000000000000600082015250565b7f4552433732313a207472616e7366657220746f206e6f6e20455243373231526560008201527f63656976657220696d706c656d656e7465720000000000000000000000000000602082015250565b7f54686973206164647265737320616c7265616479206f776e732061207469636b60008201527f6574000000000000000000000000000000000000000000000000000000000000602082015250565b7f4552433732313a207472616e736665722066726f6d20696e636f72726563742060008201527f6f776e6572000000000000000000000000000000000000000000000000000000602082015250565b7f4552433732313a20746f6b656e20616c7265616479206d696e74656400000000600082015250565b7f4552433732313a207472616e7366657220746f20746865207a65726f2061646460008201527f7265737300000000000000000000000000000000000000000000000000000000602082015250565b7f4552433732313a20617070726f766520746f2063616c6c657200000000000000600082015250565b7f4552433732313a206f70657261746f7220717565727920666f72206e6f6e657860008201527f697374656e7420746f6b656e0000000000000000000000000000000000000000602082015250565b7f4552433732313a20617070726f76652063616c6c6572206973206e6f74206f7760008201527f6e6572206e6f7220617070726f76656420666f7220616c6c0000000000000000602082015250565b7f4552433732313a2062616c616e636520717565727920666f7220746865207a6560008201527f726f206164647265737300000000000000000000000000000000000000000000602082015250565b7f4552433732313a206f776e657220717565727920666f72206e6f6e657869737460008201527f656e7420746f6b656e0000000000000000000000000000000000000000000000602082015250565b7f4552433732313a206d696e7420746f20746865207a65726f2061646472657373600082015250565b7f4552433732313a20617070726f76656420717565727920666f72206e6f6e657860008201527f697374656e7420746f6b656e0000000000000000000000000000000000000000602082015250565b7f4552433732314d657461646174613a2055524920717565727920666f72206e6f60008201527f6e6578697374656e7420746f6b656e0000000000000000000000000000000000602082015250565b7f4552433732313a20617070726f76616c20746f2063757272656e74206f776e6560008201527f7200000000000000000000000000000000000000000000000000000000000000602082015250565b7f4552433732313a207472616e736665722063616c6c6572206973206e6f74206f60008201527f776e6572206e6f7220617070726f766564000000000000000000000000000000602082015250565b612b7d81612477565b8114612b8857600080fd5b50565b612b9481612489565b8114612b9f57600080fd5b50565b612bab8161249f565b8114612bb657600080fd5b50565b612bc2816124eb565b8114612bcd57600080fd5b5056fea26469706673582212202eb17a60422495ea8d400e33065f9e70d386fbb161daeaa82fc8b4fbd3a015a564736f6c63430008040033",
  "linkReferences": {},
  "deployedLinkReferences": {}
}